{
  "transactions": [
    {
      "hash": "0xa976513882f271e3448b65b6d6af99a956ec8250df4b48eafdeb489b789bb6bc",
      "transactionType": "CALL",
      "contractName": null,
      "contractAddress": "0xde510e1f9258c94c5520b717210a301cc8297f1f",
      "function": "setZkConfiguration(uint8,(bytes32,address))",
      "arguments": [
        "1",
        "(0x2d103c1cf21571889427523c0933e1cdc99c1c9474fb6f829999964b1ce820d5, 0xaE7F7EC735b6A90366e55f87780b36e7e6Ec3c65)"
      ],
      "transaction": {
        "from": "0xfa17641b67ecbfe96e94c8278d8835a1adf64097",
        "to": "0xde510e1f9258c94c5520b717210a301cc8297f1f",
        "gas": "0xade7",
        "value": "0x0",
        "input": "0x25e11c7500000000000000000000000000000000000000000000000000000000000000012d103c1cf21571889427523c0933e1cdc99c1c9474fb6f829999964b1ce820d5000000000000000000000000ae7f7ec735b6a90366e55f87780b36e7e6ec3c65",
        "nonce": "0xd2c",
        "chainId": "0x1555e3"
      },
      "additionalContracts": [],
      "isFixedGasLimit": false
    }
  ],
  "receipts": [
    {
      "status": "0x1",
      "cumulativeGasUsed": "0x12936",
      "logs": [],
      "logsBloom": "0x00000000000000000000000000000000000000000000000000000000000000000000000000000000000000000000000000000000000000000000000000000000000000000000000000000000000000000000000000000000000000000000000000000000000000000000000000000000000000000000000000000000000000000000000000000000000000000000000000000000000000000000000000000000000000000000000000000000000000000000000000000000000000000000000000000000000000000000000000000000000000000000000000000000000000000000000000000000000000000000000000000000000000000000000000000000",
      "type": "0x2",
      "transactionHash": "0xa976513882f271e3448b65b6d6af99a956ec8250df4b48eafdeb489b789bb6bc",
      "transactionIndex": "0x1",
      "blockHash": "0xa3daf3eee1a2d51da68a43dec2636c9705d098c215fb6884f9486c60f2addc26",
      "blockNumber": "0x6a09f9",
      "gasUsed": "0x7de8",
      "effectiveGasPrice": "0xf433c",
      "from": "0xfa17641b67ecbfe96e94c8278d8835a1adf64097",
      "to": "0xde510e1f9258c94c5520b717210a301cc8297f1f",
      "contractAddress": null,
      "l1BaseFeeScalar": "0x558",
      "l1BlobBaseFee": "0x1",
      "l1BlobBaseFeeScalar": "0xc5fc5",
      "l1Fee": "0xa4827b14",
      "l1GasPrice": "0x4382b328",
      "l1GasUsed": "0x6f5"
    }
  ],
  "libraries": [],
  "pending": [],
  "returns": {},
  "timestamp": 1732764627,
  "chain": 1398243,
  "commit": "c5f281a"
}