{
  "transactions": [
    {
      "hash": "0xf84e4de17eb65b69a47dba9ace00940aa3751d0db69d57ec1cc86241f1303632",
      "transactionType": "CALL",
      "contractName": null,
      "contractAddress": "0x193fe4a8d2f68ad9d1866ee19cf1cc1523d3c67b",
      "function": "configureRootPubkey(uint8,bytes)",
      "arguments": [
        "0",
        "0x00000000000000000000000000000000000000000000000000000000000000400000000000000000000000000000000000000000000000000000000000000080000000000000000000000000000000000000000000000000000000000000000301000100000000000000000000000000000000000000000000000000000000000000000000000000000000000000000000000000000000000000000000000201009d4d9daeb3537db84d4089657fe5b6cbe44e09b4b321dd5a2997edd93f738d940ece319c725d7b8b598829697b353701d15617b77271652cce663b232cd54010dd8c1a3f5389e74bf907b02995f4266404b988e6f962a4b0bb7181d2e9f44ec464dc0d0ea575af4a913f9b41f0e5a4c906c874b7aee1a0b3ee3fd2975164072b5ebfdb1b146cededcc278f38bd9bb9e8aac93eb91541a77f889f7e503dd723f187e51269c704dbee5032612c224c5bc28e8cfebef8f85bb378828ad25c00d12d5b8a93345a0a5b708795b7120a34ccf0ab0d6d4c7703c7a4e4454b8d9587d69b7d1374dfa51e97c9f40a9d8ea497968420fc1d5b778561aa8214fac8a3da504fa5ae0d23f82426096d99de28a21b663cd7909b773501b7d84ba46089816fd482926f7e7d2e4b64583da23cee6cc5f7f8d901a125c8ece3ef9c73318eea7d9b0e6c7ba41457b1aaa420364cdca9a259ae43e7006b157b26a1c4f1d97da567fe6376ab6fef628850b016de25025270e43d024d14c2d58e585850c10ab03fbc69e64e7a86f02fa38d4012edc8e347cab838f8720e62513e7682fd91b9b8fd0ad33e86a0eff7b9e9fdc2ab210ae1de80b4e939e1c42512ab405af83d523054e074f9e6cee45828c8ec38de7c850f950a043c4407804aa3fd2e0222872d1bef80b6ce45b53c280448b35128a848e617c52dae64165768548f0ceac2f1c57a2f2b3f1300000000000000000000000000000000000000000000000000000000000000"
      ],
      "transaction": {
        "from": "0x3d089c2f2cb86d4efde153c81cabd4579784430b",
        "to": "0x193fe4a8d2f68ad9d1866ee19cf1cc1523d3c67b",
        "gas": "0x15bc5",
        "value": "0x0",
        "input": "0xfcbf70890000000000000000000000000000000000000000000000000000000000000000000000000000000000000000000000000000000000000000000000000000004000000000000000000000000000000000000000000000000000000000000002c000000000000000000000000000000000000000000000000000000000000000400000000000000000000000000000000000000000000000000000000000000080000000000000000000000000000000000000000000000000000000000000000301000100000000000000000000000000000000000000000000000000000000000000000000000000000000000000000000000000000000000000000000000201009d4d9daeb3537db84d4089657fe5b6cbe44e09b4b321dd5a2997edd93f738d940ece319c725d7b8b598829697b353701d15617b77271652cce663b232cd54010dd8c1a3f5389e74bf907b02995f4266404b988e6f962a4b0bb7181d2e9f44ec464dc0d0ea575af4a913f9b41f0e5a4c906c874b7aee1a0b3ee3fd2975164072b5ebfdb1b146cededcc278f38bd9bb9e8aac93eb91541a77f889f7e503dd723f187e51269c704dbee5032612c224c5bc28e8cfebef8f85bb378828ad25c00d12d5b8a93345a0a5b708795b7120a34ccf0ab0d6d4c7703c7a4e4454b8d9587d69b7d1374dfa51e97c9f40a9d8ea497968420fc1d5b778561aa8214fac8a3da504fa5ae0d23f82426096d99de28a21b663cd7909b773501b7d84ba46089816fd482926f7e7d2e4b64583da23cee6cc5f7f8d901a125c8ece3ef9c73318eea7d9b0e6c7ba41457b1aaa420364cdca9a259ae43e7006b157b26a1c4f1d97da567fe6376ab6fef628850b016de25025270e43d024d14c2d58e585850c10ab03fbc69e64e7a86f02fa38d4012edc8e347cab838f8720e62513e7682fd91b9b8fd0ad33e86a0eff7b9e9fdc2ab210ae1de80b4e939e1c42512ab405af83d523054e074f9e6cee45828c8ec38de7c850f950a043c4407804aa3fd2e0222872d1bef80b6ce45b53c280448b35128a848e617c52dae64165768548f0ceac2f1c57a2f2b3f1300000000000000000000000000000000000000000000000000000000000000",
        "nonce": "0x1c7",
        "chainId": "0x1555e3"
      },
      "additionalContracts": [],
      "isFixedGasLimit": false
    }
  ],
  "receipts": [
    {
      "status": "0x1",
      "cumulativeGasUsed": "0x19925",
      "logs": [],
      "logsBloom": "0x00000000000000000000000000000000000000000000000000000000000000000000000000000000000000000000000000000000000000000000000000000000000000000000000000000000000000000000000000000000000000000000000000000000000000000000000000000000000000000000000000000000000000000000000000000000000000000000000000000000000000000000000000000000000000000000000000000000000000000000000000000000000000000000000000000000000000000000000000000000000000000000000000000000000000000000000000000000000000000000000000000000000000000000000000000000",
      "type": "0x2",
      "transactionHash": "0xf84e4de17eb65b69a47dba9ace00940aa3751d0db69d57ec1cc86241f1303632",
      "transactionIndex": "0x1",
      "blockHash": "0x4ee63a852b9b0d06b0725ac5ce65f70a97ba61d53f51c0410f13abfd3264627a",
      "blockNumber": "0x5120ca",
      "gasUsed": "0xedcb",
      "effectiveGasPrice": "0xfd",
      "from": "0x3d089c2f2cb86d4efde153c81cabd4579784430b",
      "to": "0x193fe4a8d2f68ad9d1866ee19cf1cc1523d3c67b",
      "contractAddress": null,
      "l1BaseFeeScalar": "0x558",
      "l1BlobBaseFee": "0x1",
      "l1BlobBaseFeeScalar": "0xc5fc5",
      "l1Fee": "0x1895e00feb",
      "l1GasPrice": "0x2175d5a5a",
      "l1GasUsed": "0x2191"
    }
  ],
  "libraries": [],
  "pending": [],
  "returns": {},
  "timestamp": 1729499513,
  "chain": 1398243,
  "commit": "7326076"
}